{
  "_format": "hh-sol-artifact-1",
  "contractName": "Upload",
  "sourceName": "contracts/Upload.sol",
  "abi": [
    {
      "anonymous": false,
      "inputs": [
        {
          "indexed": true,
          "internalType": "address",
          "name": "user",
          "type": "address"
        },
        {
          "indexed": false,
          "internalType": "string",
          "name": "hash",
          "type": "string"
        }
      ],
      "name": "HashAdded",
      "type": "event"
    },
    {
      "inputs": [
        {
          "internalType": "address",
          "name": "_user",
          "type": "address"
        },
        {
          "internalType": "string",
          "name": "hash",
          "type": "string"
        }
      ],
      "name": "addHash",
      "outputs": [],
      "stateMutability": "nonpayable",
      "type": "function"
    },
    {
      "inputs": [
        {
          "internalType": "address",
          "name": "user",
          "type": "address"
        }
      ],
      "name": "allow",
      "outputs": [],
      "stateMutability": "nonpayable",
      "type": "function"
    },
    {
      "inputs": [
        {
          "internalType": "address",
          "name": "user",
          "type": "address"
        }
      ],
      "name": "disallow",
      "outputs": [],
      "stateMutability": "nonpayable",
      "type": "function"
    },
    {
      "inputs": [
        {
          "internalType": "address",
          "name": "_user",
          "type": "address"
        }
      ],
      "name": "display",
      "outputs": [
        {
          "internalType": "string[]",
          "name": "",
          "type": "string[]"
        }
      ],
      "stateMutability": "view",
      "type": "function"
    },
    {
      "inputs": [],
      "name": "shareAccess",
      "outputs": [
        {
          "components": [
            {
              "internalType": "address",
              "name": "user",
              "type": "address"
            },
            {
              "internalType": "bool",
              "name": "access",
              "type": "bool"
            }
          ],
          "internalType": "struct Upload.Access[]",
          "name": "",
          "type": "tuple[]"
        }
      ],
      "stateMutability": "view",
      "type": "function"
    }
  ],
  "bytecode": "0x608060405234801561001057600080fd5b5061139b806100206000396000f3fe608060405234801561001057600080fd5b50600436106100575760003560e01c8063331f916d1461005c578063a9ed9cb814610078578063bc8bef8114610094578063eb39113f146100b2578063ff9913e8146100e2575b600080fd5b61007660048036038101906100719190610df0565b6100fe565b005b610092600480360381019061008d9190610e4c565b61020c565b005b61009c61042f565b6040516100a99190610f81565b60405180910390f35b6100cc60048036038101906100c79190610e4c565b610538565b6040516100d991906110ed565b60405180910390f35b6100fc60048036038101906100f79190610e4c565b61074e565b005b6000815111610142576040517f08c379a00000000000000000000000000000000000000000000000000000000081526004016101399061116c565b60405180910390fd5b6000808373ffffffffffffffffffffffffffffffffffffffff1673ffffffffffffffffffffffffffffffffffffffff168152602001908152602001600020819080600181540180825580915050600190039060005260206000200160009091909190915090805190602001906101b9929190610b95565b508173ffffffffffffffffffffffffffffffffffffffff167f064e6da85fef5acc16028f9991a73252a810233454c7c76b2975483799ba94178260405161020091906111c5565b60405180910390a25050565b6000600160003373ffffffffffffffffffffffffffffffffffffffff1673ffffffffffffffffffffffffffffffffffffffff16815260200190815260200160002060008373ffffffffffffffffffffffffffffffffffffffff1673ffffffffffffffffffffffffffffffffffffffff16815260200190815260200160002060006101000a81548160ff02191690831515021790555060005b600260003373ffffffffffffffffffffffffffffffffffffffff1673ffffffffffffffffffffffffffffffffffffffff1681526020019081526020016000208054905081101561042b578173ffffffffffffffffffffffffffffffffffffffff16600260003373ffffffffffffffffffffffffffffffffffffffff1673ffffffffffffffffffffffffffffffffffffffff1681526020019081526020016000208281548110610356576103556111e7565b5b9060005260206000200160000160009054906101000a900473ffffffffffffffffffffffffffffffffffffffff1673ffffffffffffffffffffffffffffffffffffffff161415610418576000600260003373ffffffffffffffffffffffffffffffffffffffff1673ffffffffffffffffffffffffffffffffffffffff16815260200190815260200160002082815481106103f3576103f26111e7565b5b9060005260206000200160000160146101000a81548160ff0219169083151502179055505b80806104239061124f565b9150506102a4565b5050565b6060600260003373ffffffffffffffffffffffffffffffffffffffff1673ffffffffffffffffffffffffffffffffffffffff168152602001908152602001600020805480602002602001604051908101604052809291908181526020016000905b8282101561052f578382906000526020600020016040518060400160405290816000820160009054906101000a900473ffffffffffffffffffffffffffffffffffffffff1673ffffffffffffffffffffffffffffffffffffffff1673ffffffffffffffffffffffffffffffffffffffff1681526020016000820160149054906101000a900460ff16151515158152505081526020019060010190610490565b50505050905090565b60603373ffffffffffffffffffffffffffffffffffffffff168273ffffffffffffffffffffffffffffffffffffffff1614806105fa5750600160008373ffffffffffffffffffffffffffffffffffffffff1673ffffffffffffffffffffffffffffffffffffffff16815260200190815260200160002060003373ffffffffffffffffffffffffffffffffffffffff1673ffffffffffffffffffffffffffffffffffffffff16815260200190815260200160002060009054906101000a900460ff165b610639576040517f08c379a0000000000000000000000000000000000000000000000000000000008152600401610630906112e4565b60405180910390fd5b6000808373ffffffffffffffffffffffffffffffffffffffff1673ffffffffffffffffffffffffffffffffffffffff168152602001908152602001600020805480602002602001604051908101604052809291908181526020016000905b828210156107435783829060005260206000200180546106b690611333565b80601f01602080910402602001604051908101604052809291908181526020018280546106e290611333565b801561072f5780601f106107045761010080835404028352916020019161072f565b820191906000526020600020905b81548152906001019060200180831161071257829003601f168201915b505050505081526020019060010190610697565b505050509050919050565b60018060003373ffffffffffffffffffffffffffffffffffffffff1673ffffffffffffffffffffffffffffffffffffffff16815260200190815260200160002060008373ffffffffffffffffffffffffffffffffffffffff1673ffffffffffffffffffffffffffffffffffffffff16815260200190815260200160002060006101000a81548160ff021916908315150217905550600360003373ffffffffffffffffffffffffffffffffffffffff1673ffffffffffffffffffffffffffffffffffffffff16815260200190815260200160002060008273ffffffffffffffffffffffffffffffffffffffff1673ffffffffffffffffffffffffffffffffffffffff16815260200190815260200160002060009054906101000a900460ff1615610a015760005b600260003373ffffffffffffffffffffffffffffffffffffffff1673ffffffffffffffffffffffffffffffffffffffff168152602001908152602001600020805490508110156109fb578173ffffffffffffffffffffffffffffffffffffffff16600260003373ffffffffffffffffffffffffffffffffffffffff1673ffffffffffffffffffffffffffffffffffffffff1681526020019081526020016000208281548110610926576109256111e7565b5b9060005260206000200160000160009054906101000a900473ffffffffffffffffffffffffffffffffffffffff1673ffffffffffffffffffffffffffffffffffffffff1614156109e8576001600260003373ffffffffffffffffffffffffffffffffffffffff1673ffffffffffffffffffffffffffffffffffffffff16815260200190815260200160002082815481106109c3576109c26111e7565b5b9060005260206000200160000160146101000a81548160ff0219169083151502179055505b80806109f39061124f565b915050610874565b50610b92565b600260003373ffffffffffffffffffffffffffffffffffffffff1673ffffffffffffffffffffffffffffffffffffffff16815260200190815260200160002060405180604001604052808373ffffffffffffffffffffffffffffffffffffffff168152602001600115158152509080600181540180825580915050600190039060005260206000200160009091909190915060008201518160000160006101000a81548173ffffffffffffffffffffffffffffffffffffffff021916908373ffffffffffffffffffffffffffffffffffffffff16021790555060208201518160000160146101000a81548160ff02191690831515021790555050506001600360003373ffffffffffffffffffffffffffffffffffffffff1673ffffffffffffffffffffffffffffffffffffffff16815260200190815260200160002060008373ffffffffffffffffffffffffffffffffffffffff1673ffffffffffffffffffffffffffffffffffffffff16815260200190815260200160002060006101000a81548160ff0219169083151502179055505b50565b828054610ba190611333565b90600052602060002090601f016020900481019282610bc35760008555610c0a565b82601f10610bdc57805160ff1916838001178555610c0a565b82800160010185558215610c0a579182015b82811115610c09578251825591602001919060010190610bee565b5b509050610c179190610c1b565b5090565b5b80821115610c34576000816000905550600101610c1c565b5090565b6000604051905090565b600080fd5b600080fd5b600073ffffffffffffffffffffffffffffffffffffffff82169050919050565b6000610c7782610c4c565b9050919050565b610c8781610c6c565b8114610c9257600080fd5b50565b600081359050610ca481610c7e565b92915050565b600080fd5b600080fd5b6000601f19601f8301169050919050565b7f4e487b7100000000000000000000000000000000000000000000000000000000600052604160045260246000fd5b610cfd82610cb4565b810181811067ffffffffffffffff82111715610d1c57610d1b610cc5565b5b80604052505050565b6000610d2f610c38565b9050610d3b8282610cf4565b919050565b600067ffffffffffffffff821115610d5b57610d5a610cc5565b5b610d6482610cb4565b9050602081019050919050565b82818337600083830152505050565b6000610d93610d8e84610d40565b610d25565b905082815260208101848484011115610daf57610dae610caf565b5b610dba848285610d71565b509392505050565b600082601f830112610dd757610dd6610caa565b5b8135610de7848260208601610d80565b91505092915050565b60008060408385031215610e0757610e06610c42565b5b6000610e1585828601610c95565b925050602083013567ffffffffffffffff811115610e3657610e35610c47565b5b610e4285828601610dc2565b9150509250929050565b600060208284031215610e6257610e61610c42565b5b6000610e7084828501610c95565b91505092915050565b600081519050919050565b600082825260208201905092915050565b6000819050602082019050919050565b610eae81610c6c565b82525050565b60008115159050919050565b610ec981610eb4565b82525050565b604082016000820151610ee56000850182610ea5565b506020820151610ef86020850182610ec0565b50505050565b6000610f0a8383610ecf565b60408301905092915050565b6000602082019050919050565b6000610f2e82610e79565b610f388185610e84565b9350610f4383610e95565b8060005b83811015610f74578151610f5b8882610efe565b9750610f6683610f16565b925050600181019050610f47565b5085935050505092915050565b60006020820190508181036000830152610f9b8184610f23565b905092915050565b600081519050919050565b600082825260208201905092915050565b6000819050602082019050919050565b600081519050919050565b600082825260208201905092915050565b60005b83811015611009578082015181840152602081019050610fee565b83811115611018576000848401525b50505050565b600061102982610fcf565b6110338185610fda565b9350611043818560208601610feb565b61104c81610cb4565b840191505092915050565b6000611063838361101e565b905092915050565b6000602082019050919050565b600061108382610fa3565b61108d8185610fae565b93508360208202850161109f85610fbf565b8060005b858110156110db57848403895281516110bc8582611057565b94506110c78361106b565b925060208a019950506001810190506110a3565b50829750879550505050505092915050565b600060208201905081810360008301526111078184611078565b905092915050565b600082825260208201905092915050565b7f48617368206d757374206e6f7420626520656d70747900000000000000000000600082015250565b600061115660168361110f565b915061116182611120565b602082019050919050565b6000602082019050818103600083015261118581611149565b9050919050565b600061119782610fcf565b6111a1818561110f565b93506111b1818560208601610feb565b6111ba81610cb4565b840191505092915050565b600060208201905081810360008301526111df818461118c565b905092915050565b7f4e487b7100000000000000000000000000000000000000000000000000000000600052603260045260246000fd5b7f4e487b7100000000000000000000000000000000000000000000000000000000600052601160045260246000fd5b6000819050919050565b600061125a82611245565b91507fffffffffffffffffffffffffffffffffffffffffffffffffffffffffffffffff82141561128d5761128c611216565b5b600182019050919050565b7f596f7520646f6e27742068617665206163636573730000000000000000000000600082015250565b60006112ce60158361110f565b91506112d982611298565b602082019050919050565b600060208201905081810360008301526112fd816112c1565b9050919050565b7f4e487b7100000000000000000000000000000000000000000000000000000000600052602260045260246000fd5b6000600282049050600182168061134b57607f821691505b6020821081141561135f5761135e611304565b5b5091905056fea264697066735822122094c2cdead89fcb9d462b708a72357e0b3c1da7256ca7c8a6338e68d10d74266964736f6c63430008090033",
  "linkReferences": {},
  "deployedLinkReferences": {}
}